:1000000008308A00002800000A108A100A118207AE
:1000100028340C3401340634C827CC20A02AD32A33
:100020004129C9270000C2244527D622CE24C4274F
:1000300000015029CF2CC521D427A02641234500FB
:10004000A0214527D42447294122CF290000D422CA
:100050004D284529412A552941104126D420000127
:10006000D4224D284529412A55294110C220CA20B1
:100070000001D4224D284529D4202E10CE27D22687
:1000800041260001CD27C427A0214F2754294F2600
:100090000001C121D424D620C4270001CD27C427C4
:1000A000202B4F2D0001C121D424D620C4270001CC
:1000B000CD27C427A0244E2A4526C9234527D4226C
:1000C0000001C121D424D620C4270001CD27C42794
:1000D000A029C52355294F00C121D424D620C427E7
:1000E0000001CD27C427A0264127D5204C00C121DF
:1000F000D424D620C42700003330840083130008A2
:10010000031990280130F800F701F70B8528F80B48
:1001100084284A30F700F70B8B288E28800B822822
:1001200008003A0EF039F7000F3008057704880010
:10013000000008149B28081008000808F700080EA3
:100140000F39F80008008316081088100811831270
:1001500088100F3083160805F038880083120815C0
:100160000000081400009D207808BA000810000064
:10017000081400009D207808B90008100F3083167D
:100180000805880083123A0EF700F030F70577086B
:100190003904F8007808B900B91BA928371C881061
:1001A000371888140000081100000810380EB90034
:1001B0000F30B9053908BA00912038080F39B90055
:1001C000BA00912008000F30831608058800081037
:1001D0008810081183128810081108100F30B3001E
:1001E0007C200130A5002508033C031C01290330B5
:1001F000BA009120BA0191200530B3007C20A50AF5
:10020000F3280230BA009120BA0191200530B300E2
:100210007C20A5012508033C031C17292508042080
:10022000A600B7012608B800A320A50A0A290800DD
:10023000340B1B291E294030B5001F29B5010130A0
:100240003302B50735088038B600B7013608B80064
:10025000A32008003208073A031938290B3A03197A
:100260003D29063A03194529023A03194B29502919
:100270000130B300B40018215629B7010130B8008D
:10028000A3200230B3007C2056290130B300023095
:10029000B40018215629B7011030B800A320562900
:1002A0000130B7003208B800A32056290800831691
:1002B00003178C170C140000000083120C087F3900
:1002C00003199B290313A50003170D080313A600A8
:1002D00003170F080313A7002508B2002A212608D8
:1002E00003178D000313270803178F0083168C173D
:1002F0000C140000000083120C0D0E0D7F39031941
:100300009B290313A50003170D080313A600031769
:100310000F080313A7002508B2002A212608031797
:100320008D000313270803178F008D0A03198F0A06
:10033000031357290317031308008E30F70026080C
:10034000F8002508F900FA01F808031DB129790819
:10035000F800F9010830F702F808031DB129F70188
:10036000B9290310F81BB829F90DF80DF703B129C5
:10037000F8138A150A12C02880308318AA06AF0124
:10038000B0012608AE002A08AE0625080319AC2ADB
:10039000AD00F70029080319B52AAD020319512A47
:1003A000031C0F2A2A08B300B3172B08B2002C082D
:1003B000B100B0010310B30CB20CB10CB00CAD0B1A
:1003C000D929AE1FE6292F14C92A2F102D102F1658
:1003D000283084008313DE2A2F12AE1BF9292D1C2E
:1003E000042AB30CB20CB10CB00CF70A0319C42ADE
:1003F000042AB31B072A0310B00DB10DB20DB30DC3
:10040000F7030319C42AF9292F17712A2F13260875
:10041000AE00AE1F0D2AB317BD2AB313BD2A29089B
:10042000AD00F7002508AD022608B300B317270872
:10043000B2002808B100B0010310B30CB20CB10C2B
:10044000B00CAD0B1B2AAE1F282AAF14C92AAF105F
:100450002D10AF162C3084008313DE2AAF12AE1B92
:100460003B2A2D1C462AB30CB20CB10CB00CF70A77
:100470000319C42A462AB31B492A0310B00DB10D33
:10048000B20DB30DF7030319C42A3B2AAF17712A23
:10049000AF132A08AE00AE1F4F2AB317BD2AB313FD
:1004A000BD2A2A08B300B3172B08B2002C08B100EC
:1004B000AE1F5E2AB3132F15C92A2F11B0012D10BC
:1004C000283084008313DE2AAE1B872A2608AE005C
:1004D0002D1C712AB30CB20CB10CB00CF70A031925
:1004E000C42AB01F822AB10A031D822AB20A031D40
:1004F000822AB30A031D822AB30CB20CB10CF70A8C
:100500000319C42A2F1B062AAF1B482AA62A8030AB
:10051000B306B31F8F2AC92A2A08AE009C2A2608D0
:10052000AE00B308031D9C2AB208031D9C2AB10823
:10053000031D9C2AF701BD2AB31BA62A0310B00D88
:10054000B10DB20DB30DF70B9C2AC42AAE1FAA2A17
:10055000B317BD2AB313BD2A2908F7002A08B30030
:100560002B08B2002C08B100BD2A2508F700260888
:10057000B3002708B2002808B1003308F800320899
:10058000F9003108FA00FC2AF701F801F901FA0133
:10059000FC2AB001B109B209B309B009B00A031DC0
:1005A000D72AB10A031DD72AB20A0319B30A2F1892
:1005B000E529AF18272A2F195D2A8C2A0008B107D0
:1005C000031CE82AB20A031DE82AB30A03192D14F2
:1005D00084030008B207031CF02AB30A03192D1480
:1005E00084030008801F803AB30703182D142F1AC4
:1005F000EC29AF1A2E2A642A8A150A12D9288318E0
:10060000042B3A3084008313F701F801F901FA0151
:10061000BA01BB01BC01BD013908380437043604F6
:100620000319422B2030BE000310B20DB30DB40DE0
:10063000B50DBA0DBB0DBC0DBD0D39083D02031D36
:100640002B2B38083C02031D2B2B37083B02031DC4
:100650002B2B36083A02031C3C2B3608BA0237080B
:10066000031C370FBB023808031C380FBC023908C3
:10067000031C390FBD020314F70DF80DF90DFA0D27
:10068000BE0B142B3A088000840A3B088000840AC1
:100690003C088000840A3D08800008000408AA0085
:1006A0002908AC000319E02B2808B5002708B4007E
:1006B0002608B3002508B200B901B8012030B70000
:1006C0008230B60032080319D22BBA00360803195B
:1006D000D22BBA070318732B7F30BA02031CD22B1C
:1006E0000319D22B772B8130BA070318D22B3A0883
:1006F000F700F801F901FA013308BE00BE1734080B
:10070000BD003508BC001830BA00BB013C1CA02B52
:100710003908FA07031C922BF90A031D922BF80AD9
:100720000319BB173808F907031C992BF80A03199A
:10073000BB173708B400B4173408F8070318BB1701
:10074000BB0DF80CF90CFA0CBE0CBD0CBC0C031064
:10075000BA0B852B0130F7070318D22BF81BB72BE8
:10076000BE0DFA0DF90DF80DF7030319D22BBE1FBC
:10077000C82BFA0A031DC82BF90A031DC82BF80A57
:10078000031DC82BF80CF90CFA0CF70A0319D22B2D
:100790003308BB003708BB06BB1FD02BF817D62B7E
:1007A000F813D62BF701F801F901FA017A08A8002D
:1007B0007908A7007808A6007708A500AC0B542B91
:1007C0002808B5002708B4002608B3002508B200A1
:1007D0003208B63CB200FA013308B600B317031072
:1007E000B30CB40CB50CFA0CF90CF80CF70CB20BFA
:1007F000EF2BB61F062CF709F809F909FA09F70AD1
:100800000319F80A0319F90A0319FA0A7A08A80061
:100810007908A7007808A6007708A500A81F1D2C56
:10082000AA03AA16A509A609A709A809A50A0319D2
:10083000A60A0319A70A0319A80A3B30B1009A3087
:10084000B000CA30AF00AE010A30AC00290803196D
:10085000AA0A83142530840083132808B5002708CA
:10086000B4002608B3002508B2003108B9003008EA
:10087000B8002F08B7002E08B600FF227808F70846
:10088000031D552C290A2C020319552C2A0803197B
:10089000572C0F392C0203194F2C0318872CAA1B35
:1008A000872C2A1B572C2030832C2030AA05AA1E07
:1008B000652CAA122908031DAA037708AA002D3067
:1008C000B2002A212A08F700AA0129082C02031DD8
:1008D000732C7708AA002E30B2002A212A08F700CC
:1008E0002030AA0500303030AA1E832CAA12290815
:1008F000031DAA037708AA002D30B2002A212A0876
:10090000F700AA013030F7077708B2002A218310D8
:100910003108B5003008B4002F08B3002E08B2002B
:10092000B901B801B7010A30B600FF227A08B10058
:100930007908B0007808AF007708AE00AC0B292C1E
:100940008A150A12F7282608AD002A08AD06AD1F41
:10095000AE2C03110310A61B0314E12C2608AD00D6
:100960002908AE002508AE020319BC2CAD1FE12CEE
:100970000308013A8300E12C2A08AE002608AE02E3
:100980000319C82CAD1FE12C0308013A8300E12CA8
:100990002B08AE002708AE020319D42CAD1FE12CA2
:1009A0000308013A8300E12C2C08AE002808AE02AF
:1009B0000319E02CAD1FE12C0308013A8300E12C60
:0409C0000310080018
:10100000840183131F308305FF30A40083161F144F
:101010009F141F159F1107309C00F8308600FF3089
:1010200087008312A40000308316880009108910FD
:1010300009111F109F141F159F151F1383121F17CF
:101040009F1783169F1783121F140830F700810122
:101050008130840083130008C039073880006400A1
:101060000008C739F719C039770480000030F8004C
:101070001F08C73978049F008A11E3208A150330BE
:10108000B3000130B4008A1118218A150C300317FF
:101090008D0000308F008A11031357218A15043008
:1010A000A500FA30B3008A117C208A15A50B5128BF
:1010B0000430B3000230B4008A1118218A151330AD
:1010C00003178D0000308F008A11031357218A15F2
:1010D0000430A500FA30B3008A117C208A15A50BD4
:1010E0006A288A11E3208A150230B3000130B40067
:1010F0008A1118218A15193003178D0000308F00CE
:101100008A11031357218A150430A500FA30B30061
:101110008A117C208A15A50B86288A11E3208A155E
:1011200083160910831209146430B3008A117C20DD
:101130008A1583160910831209100230A500FA30AF
:10114000B3008A117C208A15A50B9F280030A400CB
:10115000831687010130831287001F151F19AE28DF
:1011600083161E088312A5001E08A6000310260C75
:10117000FA00250CF900A5007A08A6008A119D291D
:101180008A157A08A3007908A2007808A1007708D8
:10119000A00083142308A8002208A7002108A600A5
:1011A0002008A500AC01AB01AA017F30A9008A117B
:1011B000BC298A157A08A3007908A2007808A10042
:1011C0007708A0000130B3000230B4008A11182162
:1011D0008A15893084002308A8002208A700210866
:1011E000A6002008A5000230A9008A114E2B8A15FE
:1011F0000530B3000230B4008A1118218A1520305E
:1012000003178D0000308F008A11031357218A15B0
:10121000A801A7012030A6008430A5002308AC0057
:101220002208AB002108AA002008A9008A11A324E3
:101230008A1503181D29031D5329831609108312CB
:101240000914FA30B3008A117C208A15831609101C
:10125000831209109630B3008A117C208A158316F8
:10126000091083120914FA30B3008A117C208A1500
:1012700083160910831209109630B3008A117C205E
:101280008A158316091083120914FA30B3008A11E3
:101290007C208A1583160910831209109630B3003A
:1012A0008A117C208A15A801A7011030A60084307D
:1012B000A5002308AC002208AB002108AA002008E2
:1012C000A9008A11A3248A1503186829031D8829F7
:1012D0000130B300B4008A1118218A152730031792
:1012E0008D0000308F008A11031357218A150430B6
:1012F000A500FA30B3008A117C208A15A50B792944
:101300008A11E3208A156430B3008A117C208A1583
:101310002308A8002208A7002108A6002008A5008D
:10132000AC01AB013830AA008330A9008A11A32494
:101330008A1503189D29031DBD290130B300B4008F
:101340008A1118218A15303003178D0000308F0064
:101350008A11031357218A150430A500FA30B3000F
:101360008A117C208A15A50BAE298A11E3208A15E3
:101370006430B3008A117C208A152308A800220853
:10138000A7002108A6002008A500AC01AB010C3085
:10139000AA008430A9008A11A3248A150318D2292F
:1013A000031D072AA801A7014030A6008330A5002D
:1013B0002308AC002208AB002108AA002008A900DD
:1013C0008A11A3248A150318E729031D072A01306F
:1013D000B300B4008A1118218A15393003178D0023
:1013E00000308F008A11031357218A150430A5009D
:1013F000FA30B3008A117C208A15A50BF8298A11CE
:10140000E3208A156430B3008A117C208A150030ED
:10141000A40083168701831287018316861783121F
:10142000861F452A83160610831206108A11E320B0
:101430008A150330B3000130B4008A1118218A15CF
:10144000423003178D0000308F008A11031357219B
:101450008A150530B3000230B4008A1118218A15AC
:10146000493003178D0000308F008A110313572174
:101470008A150430A500FA30B3008A117C208A1541
:10148000A50B3B2A8A11E3208A15831606178312BF
:10149000061F7D2A83160610831206108A11E32088
:1014A0008A150530B3000130B4008A1118218A155D
:1014B0004E3003178D0000308F008A11031357211F
:1014C0008A150530B3000230B4008A1118218A153C
:1014D000533003178D0000308F008A1103135721FA
:1014E0008A150430A500FA30B3008A117C208A15D1
:1014F000A50B732A8A11E3208A1583168616831298
:10150000861EB42A83160610831206108A11E32061
:101510008A150130B300B4008A1118218A15583099
:1015200003178D0000308F008A11031357218A158D
:101530000530B3000230B4008A1118218A156130D9
:1015400003178D0000308F008A11031357218A156D
:101550000430A500FA30B3008A117C208A15A50B4F
:10156000AA2A8A11E3208A15831606168312061EFC
:10157000EC2A83160610831206148A11E3208A15BA
:101580000330B3000130B4008A1118218A15663087
:1015900003178D0000308F008A11031357218A151D
:1015A0000530B3000230B4008A1118218A156C305E
:1015B00003178D0000308F008A11031357218A15FD
:1015C0000430A500FA30B3008A117C208A15A50BDF
:1015D000E22A8A11E3208A15831686158312861D56
:1015E000242B83160610831206108A11E3208A1515
:1015F0000330B3000130B4008A1118218A1571300C
:1016000003178D0000308F008A11031357218A15AC
:101610000530B3000230B4008A1118218A157730E2
:1016200003178D0000308F008A11031357218A158C
:101630000430A500FA30B3008A117C208A15A50B6E
:101640001A2B8A11E3208A15A41524088316870013
:101650008312871D5F2B831609108312091404302F
:10166000A500FA30B3008A117C208A15A50B312B16
:1016700083160910831209100230A500FA30B30056
:101680008A117C208A15A50B3E2B83160910831224
:1016900009140430A500FA30B3008A117C208A15A1
:1016A000A50B4B2B83160910831209100230A500DD
:1016B000FA30B3008A117C208A15A50B582B24150B
:1016C0002408831687008312071D9A2B831609109E
:1016D000831209140430A500FA30B3008A117C206B
:1016E0008A15A50B6C2B8316091083120910023082
:1016F000A500FA30B3008A117C208A15A50B792B3E
:1017000083160910831209140430A500FA30B300BF
:101710008A117C208A15A50B862B8316091083124B
:1017200009100230A500FA30B3008A117C208A1516
:10173000A50B932BA4142408831687008312871CFF
:10174000D52B83160910831209140430A500FA3032
:10175000B3008A117C208A15A50BA72B83160910CC
:10176000831209100230A500FA30B3008A117C20E0
:101770008A15A50BB42B83160910831209140430A3
:10178000A500FA30B3008A117C208A15A50BC12B65
:1017900083160910831209100230A500FA30B30035
:1017A0008A117C208A15A50BCE2B241424088316BD
:1017B00087008312071C102C83160910831209144A
:1017C0000430A500FA30B3008A117C208A15A50BDD
:1017D000E22B83160910831209100230A500FA309B
:1017E000B3008A117C208A15A50BEF2B83160910F4
:1017F000831209140430A500FA30B3008A117C204A
:101800008A15A50BFC2B83160910831209100230D0
:10181000A500FA30B3008A117C208A15A50B092C8B
:04182000A628630093
:02400E00393F38
:00000001FF
;PIC16F877A
;CRC=4C6E  CREATED="07-oct.-17 15:33"
