:1000000000308A002D28000024308400831300086B
:10001000031918280130F800F701F70B0D28F80B29
:100020000C284A30F700F70B13281628800B0A28F3
:1000300008001230A402031C2C28243084008313EF
:10004000FC3080050310800C800C000803192C285C
:100050002A280000800B29280800840183131F3000
:100060008305193083169900A630980090308312CA
:10007000980083161F149F141F159F1107309C00B2
:10008000003085008600880009108910091185015B
:1000900083128501831686018312860183168801E7
:1000A00083128801831609108910091183128901AE
:1000B0008316881183128811831608118312081180
:1000C0008316881083128810831608108312081074
:1000D0008C1E68281A08A00030302002D63E031873
:1000E000192A2A3E1B2A8316081283120816831621
:1000F0008811831288118316081183120811831640
:100100008810831288108316081083120810192A89
:100110008316881183128815831608128312081219
:100120008316081183120811831688108312881011
:100130008316081083120810192A831608118312D7
:1001400008158316881183128811831608128312EA
:1001500008128316881083128810831608108312E1
:100160000810192A831688108312881483168811A0
:10017000831288118316081283120812831608113D
:10018000831208118316081083120810192A831687
:10019000081083120814831688118312881183169D
:1001A0000811831208118316881083128810831691
:1001B000081283120812192A8316061083120610D9
:1001C0008316861083128610831606118312061179
:1001D0008316861183128611831606128312061265
:1001E0008316861283128612831606138312061351
:1001F000831686138312861383160911831209113D
:10020000192A8316061083120614192A831606105B
:1002100083120610192A8316861083128614192A4F
:100220008316861083128610192A831606118312EC
:100230000615192A8316061183120611192A831628
:10024000861183128615192A831686118312861148
:10025000192A8316061283120616192A8316061205
:1002600083120612192A8316861283128616192AF9
:100270008316861283128612192A83160613831296
:100280000617192A8316061383120613192A8316D2
:10029000861383128617192A8316861383128613F0
:1002A000192AA10121083C3C031C6F2983168910DF
:1002B00083128914A630F700F70B5C29000083161F
:1002C0008910831289101330A40004200230A30087
:1002D000F730A4001920A30B6829A10A5229192A72
:1002E000A20122083C3C031C932983168910831227
:1002F00089140130A40004200230A300F730A400C8
:100300001920A30B7E2983168910831289101230BD
:10031000A40004200230A300F730A4001920A30B8E
:100320008C29A20A7129192A831605108312051433
:1003300083168510831285101430A300FA30A400B0
:100340000420A30B9E298316051083120510831623
:10035000851083128510192A83168510831285143F
:1003600083160510831205101230A300FA30A40082
:100370000420A30BB62983160510831205108316DB
:10038000851083128510192A83160511831205150D
:1003900083168511831285110230A3009630A400C4
:1003A0000420A30BCE298316051183120511831691
:1003B000851183128511192A8316851183128515DB
:1003C00083160511831205110230A3009630A40094
:1003D0000420A30BE6298316051183120511831649
:1003E000851183128511192A8316091083120914A5
:1003F0008316851283128512192A83168512831299
:1004000085168316091083120910192A83160911FB
:1004100083120915192A8316091183120911192A41
:100420008316851283128512831609108312091010
:10043000192A682863000A108A140A118207DC2826
:10044000732888289D28B228C728012906290B2946
:100450001029192A192A192A192A192A192A192A8E
:1004600015291A291F29242929292E293329382910
:100470003D29422947294C29512970299429AC2921
:10048000C429DC29192A192AF429FD29062A0B2A4C
:02049000102A30
:02400E00393F38
:00000001FF
;PIC16F877A
;CRC=6DEA  CREATED="28-oct.-17 21:05"
